{"abi":[{"type":"function","name":"getOwnerExpiration","inputs":[{"name":"account","type":"address","internalType":"address"},{"name":"owner","type":"address","internalType":"address"}],"outputs":[{"name":"","type":"uint48","internalType":"uint48"}],"stateMutability":"view"},{"type":"function","name":"getOwners","inputs":[{"name":"account","type":"address","internalType":"address"}],"outputs":[{"name":"ownersArray","type":"tuple[]","internalType":"struct ENSValidator.Owner[]","components":[{"name":"addr","type":"address","internalType":"address"},{"name":"expiration","type":"uint48","internalType":"uint48"}]}],"stateMutability":"view"},{"type":"function","name":"getOwnersCount","inputs":[{"name":"account","type":"address","internalType":"address"}],"outputs":[{"name":"","type":"uint256","internalType":"uint256"}],"stateMutability":"view"},{"type":"function","name":"isInitialized","inputs":[{"name":"smartAccount","type":"address","internalType":"address"}],"outputs":[{"name":"","type":"bool","internalType":"bool"}],"stateMutability":"view"},{"type":"function","name":"isModuleType","inputs":[{"name":"typeID","type":"uint256","internalType":"uint256"}],"outputs":[{"name":"","type":"bool","internalType":"bool"}],"stateMutability":"pure"},{"type":"function","name":"isOwner","inputs":[{"name":"account","type":"address","internalType":"address"},{"name":"owner","type":"address","internalType":"address"}],"outputs":[{"name":"","type":"bool","internalType":"bool"}],"stateMutability":"view"},{"type":"function","name":"isValidSignatureWithSender","inputs":[{"name":"","type":"address","internalType":"address"},{"name":"hash","type":"bytes32","internalType":"bytes32"},{"name":"data","type":"bytes","internalType":"bytes"}],"outputs":[{"name":"","type":"bytes4","internalType":"bytes4"}],"stateMutability":"view"},{"type":"function","name":"name","inputs":[],"outputs":[{"name":"","type":"string","internalType":"string"}],"stateMutability":"pure"},{"type":"function","name":"onInstall","inputs":[{"name":"data","type":"bytes","internalType":"bytes"}],"outputs":[],"stateMutability":"nonpayable"},{"type":"function","name":"onUninstall","inputs":[{"name":"","type":"bytes","internalType":"bytes"}],"outputs":[],"stateMutability":"nonpayable"},{"type":"function","name":"thresholds","inputs":[{"name":"account","type":"address","internalType":"address"}],"outputs":[{"name":"","type":"uint256","internalType":"uint256"}],"stateMutability":"view"},{"type":"function","name":"updateConfig","inputs":[{"name":"newThreshold","type":"uint256","internalType":"uint256"},{"name":"ownersToAdd","type":"tuple[]","internalType":"struct ENSValidator.Owner[]","components":[{"name":"addr","type":"address","internalType":"address"},{"name":"expiration","type":"uint48","internalType":"uint48"}]},{"name":"ownersToRemove","type":"address[]","internalType":"address[]"}],"outputs":[],"stateMutability":"nonpayable"},{"type":"function","name":"updateOwnerExpiration","inputs":[{"name":"owner","type":"address","internalType":"address"},{"name":"newExpiration","type":"uint48","internalType":"uint48"}],"outputs":[],"stateMutability":"nonpayable"},{"type":"function","name":"validateSignatureWithData","inputs":[{"name":"hash","type":"bytes32","internalType":"bytes32"},{"name":"signature","type":"bytes","internalType":"bytes"},{"name":"data","type":"bytes","internalType":"bytes"}],"outputs":[{"name":"","type":"bool","internalType":"bool"}],"stateMutability":"view"},{"type":"function","name":"validateUserOp","inputs":[{"name":"userOp","type":"tuple","internalType":"struct PackedUserOperation","components":[{"name":"sender","type":"address","internalType":"address"},{"name":"nonce","type":"uint256","internalType":"uint256"},{"name":"initCode","type":"bytes","internalType":"bytes"},{"name":"callData","type":"bytes","internalType":"bytes"},{"name":"accountGasLimits","type":"bytes32","internalType":"bytes32"},{"name":"preVerificationGas","type":"uint256","internalType":"uint256"},{"name":"gasFees","type":"bytes32","internalType":"bytes32"},{"name":"paymasterAndData","type":"bytes","internalType":"bytes"},{"name":"signature","type":"bytes","internalType":"bytes"}]},{"name":"userOpHash","type":"bytes32","internalType":"bytes32"}],"outputs":[{"name":"","type":"uint256","internalType":"ERC7579ValidatorBase.ValidationData"}],"stateMutability":"view"},{"type":"function","name":"version","inputs":[],"outputs":[{"name":"","type":"string","internalType":"string"}],"stateMutability":"pure"},{"type":"event","name":"ModuleInitialized","inputs":[{"name":"account","type":"address","indexed":true,"internalType":"address"}],"anonymous":false},{"type":"event","name":"ModuleUninitialized","inputs":[{"name":"account","type":"address","indexed":true,"internalType":"address"}],"anonymous":false},{"type":"event","name":"OwnerAdded","inputs":[{"name":"account","type":"address","indexed":true,"internalType":"address"},{"name":"owner","type":"address","indexed":true,"internalType":"address"}],"anonymous":false},{"type":"event","name":"OwnerExpirationUpdated","inputs":[{"name":"account","type":"address","indexed":true,"internalType":"address"},{"name":"owner","type":"address","indexed":true,"internalType":"address"},{"name":"newExpiration","type":"uint48","indexed":false,"internalType":"uint48"}],"anonymous":false},{"type":"event","name":"OwnerRemoved","inputs":[{"name":"account","type":"address","indexed":true,"internalType":"address"},{"name":"owner","type":"address","indexed":true,"internalType":"address"}],"anonymous":false},{"type":"event","name":"ThresholdSet","inputs":[{"name":"account","type":"address","indexed":true,"internalType":"address"},{"name":"threshold","type":"uint256","indexed":false,"internalType":"uint256"}],"anonymous":false},{"type":"error","name":"ExpirationInPast","inputs":[{"name":"expiration","type":"uint48","internalType":"uint48"}]},{"type":"error","name":"InvalidOwnersCount","inputs":[{"name":"ownersCount","type":"uint256","internalType":"uint256"},{"name":"minOwnersCount","type":"uint256","internalType":"uint256"},{"name":"maxOwnersCount","type":"uint256","internalType":"uint256"}]},{"type":"error","name":"InvalidSignature","inputs":[]},{"type":"error","name":"InvalidThreshold","inputs":[{"name":"threshold","type":"uint256","internalType":"uint256"},{"name":"minThreshold","type":"uint256","internalType":"uint256"},{"name":"maxThreshold","type":"uint256","internalType":"uint256"}]},{"type":"error","name":"ModuleAlreadyInitialized","inputs":[{"name":"smartAccount","type":"address","internalType":"address"}]},{"type":"error","name":"NotInitialized","inputs":[{"name":"smartAccount","type":"address","internalType":"address"}]},{"type":"error","name":"OwnerNotFound","inputs":[{"name":"account","type":"address","internalType":"address"},{"name":"owner","type":"address","internalType":"address"}]},{"type":"error","name":"ZeroAddressNotAllowed","inputs":[]}],"bytecode":{"object":"0x608060405234601c57600e6020565b61327461002b823961327490f35b6026565b60405190565b5f80fdfe60806040526004361015610013575b610b15565b61001d5f3561011c565b806306fdde03146101175780633b3c51a31461011257806354fd4d501461010d5780636d61fe70146101085780637ddc02d4146101035780638a91b0e3146100fe578063940d3840146100f9578063940d9ec6146100f457806397003203146100ef5780639df5f6bd146100ea578063b8474ec8146100e5578063d60b347f146100e0578063eccf1ae8146100db578063ecd05961146100d6578063f551e2ee146100d15763fd8b84b10361000e57610ae0565b6109d7565b610922565b6108d0565b61084b565b610814565b6106d3565b61060d565b61053a565b6104be565b6103f9565b6103c3565b610368565b6102ad565b610277565b6101aa565b60e01c90565b60405190565b5f80fd5b5f80fd5b5f91031261013a57565b61012c565b5190565b60209181520190565b90825f9392825e0152565b601f801991011690565b61018061018960209361018e936101778161013f565b93848093610143565b9586910161014c565b610157565b0190565b6101a79160208201915f818403910152610161565b90565b346101da576101ba366004610130565b6101d66101c5610bf5565b6101cd610122565b91829182610192565b0390f35b610128565b5f80fd5b60018060a01b031690565b6101f7906101e3565b90565b610203816101ee565b0361020a57565b5f80fd5b9050359061021b826101fa565b565b91906040838203126102455780610239610242925f860161020e565b9360200161020e565b90565b61012c565b65ffffffffffff1690565b61025e9061024a565b9052565b9190610275905f60208501940190610255565b565b346102a8576102a461029361028d36600461021d565b90610c2c565b61029b610122565b91829182610262565b0390f35b610128565b346102dd576102bd366004610130565b6102d96102c8610cb4565b6102d0610122565b91829182610192565b0390f35b610128565b5f80fd5b5f80fd5b5f80fd5b909182601f830112156103285781359167ffffffffffffffff831161032357602001926001830284011161031e57565b6102ea565b6102e6565b6102e2565b9060208282031261035e575f82013567ffffffffffffffff81116103595761035592016102ee565b9091565b6101df565b61012c565b5f0190565b346103975761038161037b36600461032d565b90610f3f565b610389610122565b8061039381610363565b0390f35b610128565b151590565b6103aa9061039c565b9052565b91906103c1905f602085019401906103a1565b565b346103f4576103f06103df6103d936600461021d565b90610f4f565b6103e7610122565b918291826103ae565b0390f35b610128565b346104285761041261040c36600461032d565b90611064565b61041a610122565b8061042481610363565b0390f35b610128565b90565b6104398161042d565b0361044057565b5f80fd5b9050359061045182610430565b565b6060818303126104b957610469825f8301610444565b92602082013567ffffffffffffffff81116104b4578361048a9184016102ee565b929093604082013567ffffffffffffffff81116104af576104ab92016102ee565b9091565b6101df565b6101df565b61012c565b346104f2576104ee6104dd6104d4366004610453565b939290926112d1565b6104e5610122565b918291826103ae565b0390f35b610128565b906020828203126105105761050d915f0161020e565b90565b61012c565b90565b61052190610515565b9052565b9190610538905f60208501940190610518565b565b3461056a576105666105556105503660046104f7565b611403565b61055d610122565b91829182610525565b0390f35b610128565b5f80fd5b90816101209103126105825790565b61056f565b91906040838203126105c7575f8301359067ffffffffffffffff82116105c2576105b6816105bf938601610573565b93602001610444565b90565b6101df565b61012c565b90565b6105e36105de6105e892610515565b6105cc565b610515565b90565b6105f4906105cf565b9052565b919061060b905f602085019401906105eb565b565b3461063e5761063a610629610623366004610587565b9061149e565b610631610122565b918291826105f8565b0390f35b610128565b61065761065261065c926101e3565b6105cc565b6101e3565b90565b61066890610643565b90565b6106749061065f565b90565b906106819061066b565b5f5260205260405f2090565b1c90565b90565b6106a49060086106a9930261068d565b610691565b90565b906106b79154610694565b90565b6106d0906106cb6002915f92610677565b6106ac565b90565b34610703576106ff6106ee6106e93660046104f7565b6106ba565b6106f6610122565b91829182610525565b0390f35b610128565b61071181610515565b0361071857565b5f80fd5b9050359061072982610708565b565b909182601f830112156107655781359167ffffffffffffffff831161076057602001926040830284011161075b57565b6102ea565b6102e6565b6102e2565b909182601f830112156107a45781359167ffffffffffffffff831161079f57602001926020830284011161079a57565b6102ea565b6102e6565b6102e2565b60608183031261080f576107bf825f830161071c565b92602082013567ffffffffffffffff811161080a57836107e091840161072b565b929093604082013567ffffffffffffffff811161080557610801920161076a565b9091565b6101df565b6101df565b61012c565b34610846576108306108273660046107a9565b9392909261150c565b610838610122565b8061084281610363565b0390f35b610128565b3461087b576108776108666108613660046104f7565b611558565b61086e610122565b918291826103ae565b0390f35b610128565b6108898161024a565b0361089057565b5f80fd5b905035906108a182610880565b565b91906040838203126108cb57806108bf6108c8925f860161020e565b93602001610894565b90565b61012c565b346108ff576108e96108e33660046108a3565b90611738565b6108f1610122565b806108fb81610363565b0390f35b610128565b9060208282031261091d5761091a915f0161071c565b90565b61012c565b346109525761094e61093d610938366004610904565b611793565b610945610122565b918291826103ae565b0390f35b610128565b916060838303126109a45761096e825f850161020e565b9261097c8360208301610444565b92604082013567ffffffffffffffff811161099f5761099b92016102ee565b9091565b6101df565b61012c565b63ffffffff60e01b1690565b6109be906109a9565b9052565b91906109d5905f602085019401906109b5565b565b34610a0b57610a076109f66109ed366004610957565b9291909161184d565b6109fe610122565b918291826109c2565b0390f35b610128565b5190565b60209181520190565b60200190565b610a2c906101ee565b9052565b610a399061024a565b9052565b90602080610a5f93610a555f8201515f860190610a23565b0151910190610a30565b565b90610a6e81604093610a3d565b0190565b60200190565b90610a95610a8f610a8884610a10565b8093610a14565b92610a1d565b905f5b818110610aa55750505090565b909192610abe610ab86001928651610a61565b94610a72565b9101919091610a98565b610add9160208201915f818403910152610a78565b90565b34610b1057610b0c610afb610af63660046104f7565b611979565b610b03610122565b91829182610ac8565b0390f35b610128565b5f80fd5b606090565b634e487b7160e01b5f52604160045260245ffd5b90610b3c90610157565b810190811067ffffffffffffffff821117610b5657604052565b610b1e565b90610b6e610b67610122565b9283610b32565b565b67ffffffffffffffff8111610b8e57610b8a602091610157565b0190565b610b1e565b90610ba5610ba083610b70565b610b5b565b918252565b5f7f4f776e61626c6556616c696461746f7200000000000000000000000000000000910152565b610bdb6010610b93565b90610be860208301610baa565b565b610bf2610bd1565b90565b610bfd610b19565b50610c06610bea565b90565b5f90565b90565b610c24610c1f610c2992610c0d565b6105cc565b61024a565b90565b610c4a91610c4291610c3c610c09565b50611a5f565b91901561039c565b610c5c57610c5790611b1f565b905090565b50610c665f610c10565b90565b5f7f312e302e30000000000000000000000000000000000000000000000000000000910152565b610c9a6005610b93565b90610ca760208301610c69565b565b610cb1610c90565b90565b610cbc610b19565b50610cc5610ca9565b90565b610cd1906101ee565b9052565b9190610ce8905f60208501940190610cc8565b565b15610cf25750565b610d0d905f918291634d6b9dd360e01b835260048301610cd5565b0390fd5b90610d3791610d32610d2b610d2533611558565b1561039c565b3390610cea565b610d91565b565b90565b610d50610d4b610d5592610d39565b6105cc565b610515565b90565b610d626001610d3c565b90565b90565b610d7c610d77610d8192610d65565b6105cc565b610515565b90565b610d8e6020610d68565b90565b90610d9b91610ed8565b610db533610da7610d58565b610daf610d84565b91611bd1565b565b67ffffffffffffffff8111610dcf5760208091020190565b610b1e565b5f80fd5b9190604083820312610e1257610e0b90610df26040610b5b565b93610dff825f830161020e565b5f860152602001610894565b6020830152565b610dd4565b90929192610e2c610e2782610db7565b610b5b565b938185526040602086019202830192818411610e6b57915b838310610e515750505050565b6020604091610e608486610dd8565b815201920191610e44565b6102ea565b9080601f83011215610e8e57816020610e8b93359101610e17565b90565b6102e2565b919091604081840312610ed357610eac835f830161071c565b92602082013567ffffffffffffffff8111610ece57610ecb9201610e70565b90565b6101df565b61012c565b90610ef7610eee610efd92339490810190610e93565b91909184611cba565b82611edb565b610f277f27b541a16df0902e262f34789782092ab25125513b8ed73608e802951771b9289161066b565b90610f30610122565b80610f3a81610363565b0390a2565b90610f4991610d11565b565b5f90565b90610f6291610f5c610f4b565b50611a5f565b5090565b67ffffffffffffffff8111610f7e5760208091020190565b610b1e565b90610f95610f9083610f66565b610b5b565b918252565b369037565b90610fc4610fac83610f83565b92602080610fba8693610f66565b9201910390610f9a565b565b610fda610fd5610fdf92610c0d565b6105cc565b610515565b90565b6001610fee9101610515565b90565b634e487b7160e01b5f52603260045260245ffd5b9061100f82610a10565b811015611020576020809102010190565b610ff1565b61102f90516101ee565b90565b5190565b9061104082611032565b811015611051576020809102010190565b610ff1565b90611060906101ee565b9052565b5050339061107182611979565b61108261107d82610a10565b610f9f565b9161108c5f610fc6565b5b806110a86110a261109d86610a10565b610515565b91610515565b10156110e7576110e2906110dd6110cb5f6110c4878590611005565b5101611025565b6110d88791849092611036565b611056565b610fe2565b61108d565b509290506110f86111259282611f34565b61110b816111055f610fc6565b90611edb565b5f61111f6111195f92610fc6565b91610fc6565b91611bd1565b336111507f9d00629762554452d03c3b45626436df6ca1c3795d05d04df882f6db481b1be09161066b565b90611159610122565b8061116381610363565b0390a2565b9092919261117d61117882610f66565b610b5b565b93818552602080860192028301928184116111ba57915b8383106111a15750505050565b602080916111af848661020e565b815201920191611194565b6102ea565b9080601f830112156111dd578160206111da93359101611168565b90565b6102e2565b919091604081840312611222576111fb835f830161071c565b92602082013567ffffffffffffffff811161121d5761121a92016111bf565b90565b6101df565b61012c565b5f80fd5b67ffffffffffffffff811161124957611245602091610157565b0190565b610b1e565b90825f939282370152565b9092919261126e6112698261122b565b610b5b565b9381855260208501908284011161128a576112889261124e565b565b611227565b61129a913691611259565b90565b5f90565b634e487b7160e01b5f52601160045260245ffd5b6112be90610515565b5f1981146112cc5760010190565b6112a1565b9492936112eb91946112e1610f4b565b50908101906111e2565b939093946113016112fb8761201b565b1561039c565b6113f657846113186113125f610fc6565b91610515565b146113ec579061132f61133593929192869361128f565b9061211a565b9261133f846122eb565b611348846122fe565b61135061129d565b9161135a85611032565b936113645f610fc6565b5b8061137861137288610515565b91610515565b10156113c45761139b846113956113908a8590611036565b611025565b90612339565b506113af575b6113aa90610fe2565b611365565b936113bc6113aa916112b5565b9490506113a1565b5093509350506113d76113dd9192610515565b91610515565b10156113e7575f90565b600190565b5050509150505f90565b5050509150505f90565b90565b61141e9061140f61129d565b506114195f611400565b612381565b90565b5f90565b3561142f816101fa565b90565b5f80fd5b5f80fd5b5f80fd5b903590600160200381360303821215611480570180359067ffffffffffffffff821161147b5760200191600182023603831361147657565b61143a565b611436565b611432565b61148e5f610fc6565b90565b61149b6001610d3c565b90565b6114d6916114aa611421565b506114ce6114c26114bc5f8501611425565b926123a1565b9261010081019061143e565b9290916123d4565b6114e5576114e2611491565b90565b6114ed611485565b90565b6114fb913691610e17565b90565b611509913691611168565b90565b9161152461152a9294611530969495929094926114f0565b926114fe565b9161254f565b565b5f1c90565b61154361154891611532565b610691565b90565b6115559054611537565b90565b61156f61157491611567610f4b565b506002610677565b61154b565b6115866115805f610fc6565b91610515565b141590565b156115935750565b6115ae905f91829163f91bd6f160e01b835260048301610cd5565b0390fd5b906115cf916115ca6115c333611558565b339061158b565b611637565b565b9160206115f29294936115eb60408201965f830190610cc8565b0190610cc8565b565b156115fd575050565b6116175f928392632ee63c0560e21b8452600484016115d1565b0390fd5b61162f61162a6116349261024a565b6105cc565b610515565b90565b9033611651611647828590611a5f565b91908386916115f4565b8261166a61166465ffffffffffff61024a565b9161024a565b14158061171d575b6116fe5761168c906116835f611400565b9083909161255c565b506116ad61169b84849061257f565b6116a45f611400565b90839091612594565b509190916116f96116e76116e17f3a900e147dad3c6212d1fdef3858fa55315911b555f7d35e2b002209ed90da5f9361066b565b9361066b565b936116f0610122565b91829182610262565b0390a3565b611719835f9182916325f8a46b60e01b835260048301610262565b0390fd5b508261173161172b42610515565b9161161b565b1115611672565b90611742916115b2565b565b61174e6001610d3c565b90565b611759611744565b90565b90565b61177361176e6117789261175c565b6105cc565b610515565b90565b611785600761175f565b90565b61179061177b565b90565b61179b610f4b565b50806117b66117b06117ab611751565b610515565b91610515565b149081156117c3575b5090565b90506117de6117d86117d3611788565b610515565b91610515565b145f6117bf565b5f90565b90565b60e01b90565b61180661180161180b926117e9565b6117ec565b6109a9565b90565b61181b631626ba7e6117f2565b90565b90565b61183561183061183a9261181e565b6117ec565b6109a9565b90565b61184a63ffffffff611821565b90565b5090916118679261185c6117e5565b5033929091926123d4565b6118765761187361183d565b90565b61187e61180e565b90565b606090565b5190565b9061189c61189783610db7565b610b5b565b918252565b6118ab6040610b5b565b90565b5f90565b5f90565b6118be6118a1565b90602080836118cb6118ae565b8152016118d66118b2565b81525050565b6118e46118b6565b90565b5f5b8281106118f557505050565b6020906119006118dc565b81840152016118e9565b9061192f6119178361188a565b926020806119258693610db7565b92019103906118e7565b565b9061193b82611886565b81101561194c576020809102010190565b610ff1565b61195b905161042d565b90565b6119686040610b5b565b90565b906119759061024a565b9052565b61199490611985611881565b5061198f5f611400565b6125bc565b906119a66119a183611886565b61190a565b916119b05f610fc6565b5b806119cc6119c66119c185611886565b610515565b91610515565b1015611a3657611a3190611a2a611a176119f76119f26119ed878690611931565b611951565b611b1f565b919091611a0e611a0561195e565b935f8501611056565b6020830161196b565b868391611a248383611005565b52611005565b5150610fe2565b6119b1565b5050565b5f90565b5f1b90565b611a57611a52611a5c92610c0d565b611a3e565b61042d565b90565b611a8390611a6b610f4b565b50611a74611a3a565b50611a7e5f611400565b6125bc565b91611a8d5f610fc6565b5b80611aa9611aa3611a9e87611886565b610515565b91610515565b1015611b0957611aca611ac5611ac0868490611931565b611951565b6125e5565b611adc611ad6856101ee565b916101ee565b14611aef57611aea90610fe2565b611a8e565b611b06919250611b0190600194611931565b611951565b90565b509150505f90611b185f611a43565b90565b5f90565b90611b28611b1b565b50611b31610c09565b5065ffffffffffff8260601c9260301c1690565b604090611b6e611b759496959396611b6460608401985f850190610518565b6020830190610518565b0190610518565b565b9290919215611b8557505050565b611ba0905f938493630d248d9360e41b855260048501611b45565b0390fd5b9290919215611bb257505050565b611bcd905f93849363e765bf5560e01b855260048501611b45565b0390fd5b611c499291611c25611bff611bfa611bf2611beb5f611400565b8690612381565b946002610677565b61154b565b9382611c13611c0d86610515565b91610515565b11159081611c68575b84849192611b77565b80611c38611c3285610515565b91610515565b11159283611c4b575b909192611ba4565b565b809350611c60611c5a84610515565b91610515565b111592611c41565b905083611c7d611c7783610515565b91610515565b111590611c1c565b611c99611c94611c9e92610c0d565b6105cc565b6101e3565b90565b611caa90611c85565b90565b611cb7905161024a565b90565b919091611cc65f610fc6565b5b80611ce2611cdc611cd787610a10565b610515565b91610515565b1015611e9c57611cfe5f611cf7868490611005565b5101611025565b611d18611d12611d0d5f611ca1565b6101ee565b916101ee565b14611e8057611d346020611d2d868490611005565b5101611cad565b611d4c611d4665ffffffffffff61024a565b9161024a565b141580611e4f575b611e1b57611db190611da7611d95611d785f611d71898690611005565b5101611025565b611d8f6020611d888a8790611005565b5101611cad565b9061257f565b611d9e5f611400565b90859091612594565b611db6575b610fe2565b611cc7565b82611dcd5f611dc6888590611005565b5101611025565b611e00611dfa7fc82bdbbf677a2462f2a7e22e4ba9abd209496b69cd7b868b3b1d28f76e09a40a9361066b565b9161066b565b91611e09610122565b80611e1381610363565b0390a3611dac565b611e346020611e2d611e4b9387611005565b5101611cad565b5f9182916325f8a46b60e01b835260048301610262565b0390fd5b50611e676020611e60868490611005565b5101611cad565b611e79611e7342610515565b9161161b565b1115611d54565b5f6342bcdf7f60e11b815280611e9860048201610363565b0390fd5b50509050565b90611eae5f1991611a3e565b9181191691161790565b90565b90611ed0611ecb611ed7926105cf565b611eb8565b8254611ea2565b9055565b611ef082611eeb60028490610677565b611ebb565b611f2f611f1d7ff7e18aa0532694077d6fc7df02e85d86b91ba964f958d1949d45c5776d36eb6e9261066b565b92611f26610122565b91829182610525565b0390a2565b90611f3e5f610fc6565b5b80611f5a611f54611f4f85611032565b610515565b91610515565b101561201657611f9290611f8184611f7b611f76868590611036565b611025565b90611a5f565b81611ff9575b50611f97575b610fe2565b611f3f565b83611fab611fa6858490611036565b611025565b611fde611fd87fe594d081b4382713733fe631966432c9cea5199afb2db5c3c1931f9f930036799361066b565b9161066b565b91611fe7610122565b80611ff181610363565b0390a3611f8d565b61201091506120075f611400565b9086909161255c565b5f611f87565b505050565b6120306120359161202a610f4b565b506125f9565b612605565b90565b606090565b5190565b90565b61205861205361205d92612041565b6105cc565b610515565b90565b634e487b7160e01b5f52601260045260245ffd5b61208061208691610515565b91610515565b908115612091570490565b612060565b60ff1690565b6120b06120ab6120b592610c0d565b6105cc565b612096565b90565b90565b6120cf6120ca6120d4926120b8565b6105cc565b612096565b90565b90565b6120ee6120e96120f3926120d7565b6105cc565b612096565b90565b61210261210891612096565b91612096565b90039060ff821161211557565b6112a1565b929091612125612038565b5061212f8361203d565b926121448461213e6041612044565b90612074565b9361214e85610f9f565b938561216261215c86610515565b91610515565b106122cf5761216f61129d565b9361217861129d565b5b8061218c6121868a610515565b91610515565b10156122915761219a611b1b565b50886121a7868390612656565b91806121bb6121b55f61209c565b91612096565b145f1461223457506121d39291889190918893612816565b5b806121ef6121e96121e45f611ca1565b6101ee565b916101ee565b03612219575b9061220f6122149261220a8a91849092611036565b611056565b610fe2565b612179565b959061220f61222a612214936112b5565b97919250506121f5565b91908261224a612244601e6120bb565b91612096565b115f1461227f57612271612260612279956123a1565b9361226b60046120da565b906120f6565b90919261268f565b5b6121d4565b61228c939290919261268f565b61227a565b50949650945050506122a66122ac9192610515565b91610515565b106122b357565b5f638baa579f60e01b8152806122cb60048201610363565b0390fd5b5f638baa579f60e01b8152806122e760048201610363565b0390fd5b6122f76122fc916125f9565b612ad0565b565b61230a61230f916125f9565b612b7c565b565b61231a90610643565b90565b61233161232c612336926101e3565b6105cc565b610515565b90565b9061236161235b61237a9361234c610f4b565b5061235561129d565b506125f9565b91612311565b61237461236e5f9261231d565b91610fc6565b91612bdb565b9091565b90565b906123995f61239e9361239261129d565b500161237e565b612c52565b90565b6123a9611a3a565b506020527b19457468657265756d205369676e6564204d6573736167653a0a33325f52603c60042090565b93919290926123e1610f4b565b506123f66123f160028790610677565b61154b565b938461240a6124045f610fc6565b91610515565b146124dd579061242161242793929192869361128f565b9061211a565b92612431846122eb565b61243a846122fe565b61244261129d565b9161244c85611032565b936124565f610fc6565b5b8061246a61246488610515565b91610515565b10156124b55761248d846124876124828a8590611036565b611025565b90612c72565b6124a0575b61249b90610fe2565b612457565b936124ad61249b916112b5565b949050612492565b5093509350506124c86124ce9192610515565b91610515565b10156124d8575f90565b600190565b5050509150505f90565b906124f2929161250e565b61250c336124fe610d58565b612506610d84565b91611bd1565b565b9061252c929161252761252033611558565b339061158b565b61252e565b565b909161254861254d93612542339384611f34565b82611cba565b611edb565b565b9061255a92916124e7565b565b916125775f61257c9461256d610f4b565b500192919261237e565b612d62565b90565b90612588611a3a565b5060301b9060601b1790565b916125af5f6125b4946125a5610f4b565b500192919261237e565b612e98565b90565b606090565b906125d45f6125d9936125cd6125b7565b500161237e565b612f13565b6125e16125b7565b5090565b6125ed611b1b565b5060601c90565b606090565b6126016125f4565b5090565b9061260e610f4b565b50600191600281511015612620575b50565b91506020825160051b83019201915b60208351930192835111818418810215612649575061262f565b9250505f61261d565b5f90565b9061265f612652565b50612668611a3a565b50612671611a3a565b506041026020810182015191606060408301820151920101515f1a92565b9392919060ff9061269e611b1b565b50604051955f52166020526040526060526020604060805f60015afa505f6060523d6060185191604052565b6126d66126db91611532565b6105cf565b90565b6126f26126ed6126f792610515565b6105cc565b6101e3565b90565b61270961270f91939293610515565b92610515565b820180921161271a57565b6112a1565b606090565b61272d90610643565b90565b61273990612724565b90565b6127459061065f565b90565b612751816109a9565b0361275857565b5f80fd5b9050519061276982612748565b565b9060208282031261278457612781915f0161275c565b90565b61012c565b6127929061042d565b9052565b60209181520190565b6127be6127c76020936127cc936127b58161203d565b93848093612796565b9586910161014c565b610157565b0190565b916127f3926127e660408201935f830190612789565b602081840391015261279f565b90565b6127fe610122565b3d5f823e3d90fd5b612813631626ba7e6117f2565b90565b929161283861283361283d9297969761282d611b1b565b506126ca565b6126de565b61065f565b9461284661129d565b5061288561287f61287961286960208787010151612863886126ca565b906126fa565b6128736020610d68565b906126fa565b92610515565b91610515565b1161294c57602091829161289761271f565b5001016128ab6128a686612730565b61273c565b6128cd631626ba7e9492946128d86128c1610122565b968795869485946117ec565b8452600484016127d0565b03915afa908115612947575f91612919575b506129046128fe6128f9612806565b6109a9565b916109a9565b0361290b57565b90506129165f611ca1565b90565b61293a915060203d8111612940575b6129328183610b32565b81019061276b565b5f6128ea565b503d612928565b6127f6565b505050905061295a5f611ca1565b90565b9091565b908151918151905252565b6101808284031115612a535781601f1683830160061c60051b018251815180821015612a45575b855180821015612a1c575b86528252835251918392815b5b602001805182116129ab57935b8301805182106129b85793848110156129da576129d58582612961565b6129aa565b50509092806020840103612a08575b508082036129f7575b505050565b612a009261296c565b5f80806129f2565b612a1690602084018561296c565b5f6129e9565b612a259161295d565b81831015612a33575b61299e565b9190612a3e9161295d565b9091612a2e565b612a4e9161295d565b612993565b91929080602080920190815181511015612ac0575b505b01838111612aba57805193838201805186811115612aae579085915b602082015201805186811115612a9e57908591612a86565b509460208093929601525b612a6a565b50509350602090612aa9565b50915050565b612aca9082612961565b5f612a68565b8051906002821015612ae1575b5050565b601f19602082018360051b83019181835b8051818401511115612b71571115612b695781835b8051818401511015612b5e571115612b2f5790612b2792915f855261296c565b525f80612add565b925092506020905b8351815185528152820192019180831015612b5457602090612b37565b5050505f80612add565b905081018290612b07565b505050612add565b905081018290612af2565b600281511015612b8a575b50565b6020810160408201600183510160051b8301905b8051835103612bc9575b60200183828214612bb95750612b9e565b929150500360051c90525f612b87565b91602080910192805184529050612ba8565b91612be4610f4b565b50612bed61129d565b505f19936001918451938101925b84810160011c908160051b870151830185811487831117612c38578890861115612c2c575050600101905b90612bfb565b91909295500193612c26565b939795505094505014918015159182910102911691565b90565b90612c6a5f612c6f93612c6361129d565b5001612c4f565b612f36565b90565b612c9091612c8891612c82610f4b565b50611a5f565b91901561039c565b612cb757612c9d90611b1f565b9050612cb2612cac429261161b565b91610515565b111590565b505f90565b612cc59061042d565b90565b90612cd290612cbc565b5f5260205260405f2090565b612ced612cf391939293610515565b92610515565b8203918211612cfe57565b6112a1565b1b90565b91906008612d22910291612d1c5f1984612d03565b92612d03565b9181191691161790565b9190612d42612d3d612d4a936105cf565b611eb8565b908354612d07565b9055565b612d6091612d5a61129d565b91612d2c565b565b9190612d6c610f4b565b50612d8d612d88612d81600186018590612cc8565b8390610677565b61154b565b9081612da1612d9b5f610fc6565b91610515565b14155f14612e9057612e2a5f936001612e349685612dcb612e2f97612dc585610d3c565b90612cde565b612df2612de3612ddc8b8601612c4f565b8990612f36565b612dec86610d3c565b90612cde565b9181612e06612e0085610515565b91610515565b03612e39575b505050612e24612e1d888301612c4f565b8690612f95565b01612cc8565b610677565b612d4e565b600190565b612e7c612e8391612e73612e5e612e8896612e558f8a01612c4f565b908d9091612f56565b94612e6a8e8901612c4f565b908c8792612f79565b92868601612cc8565b8890610677565b611ebb565b5f8080612e0c565b505050505f90565b9091612ea2610f4b565b50612eb8612eb283858491612fab565b1561039c565b5f14612f0c57612f0792612efd612f0292612edf612ed75f8701612c4f565b848391612fe9565b6001612ef6612eef5f8801612c4f565b8590612f36565b9501612cc8565b610677565b611ebb565b600190565b5050505f90565b90612f2b5f612f3093612f246125b7565b5001612c4f565b613002565b90565b90565b90612f4e5f612f5393612f4761129d565b5001612f33565b613022565b90565b91612f715f612f7694612f67611a3a565b5001929192612f33565b613039565b90565b91612f8e5f612f939593940193919293612f33565b613058565b565b90612fa45f612fa99301612f33565b613070565b565b90612fc8612fd2936001612fcd94612fc1610f4b565b5001612cc8565b610677565b61154b565b612fe4612fde5f610fc6565b91610515565b141590565b91612ffb5f6130009401929192612f33565b6130cf565b565b9061301a5f61301f936130136125b7565b5001612f33565b613157565b90565b906130359161302f61129d565b506131d6565b5490565b61305592916130509161304a611a3a565b506131d6565b6131ec565b90565b61306e9391613066916131d6565b91909161321a565b565b9061307a916131d6565b61308261129d565b508054806130986130925f610fc6565b91610515565b146130cb576001906130c6836130b7836130b186610d3c565b90612cde565b6130c05f611a43565b9161321a565b039055565b5050565b906130d9916131d6565b6001815401918260200282015555565b67ffffffffffffffff81116131015760208091020190565b610b1e565b90613118613113836130e9565b610b5b565b918252565b369037565b9061314761312f83613106565b9260208061313d86936130e9565b920191039061311d565b565b906131539061042d565b9052565b9061316a916131646125b7565b506131d6565b61317261129d565b5080549061317f82613122565b9261318861129d565b5b8061319c61319686610515565b91610515565b10156131d0576131cb906131c66131b48583906131ec565b6131c18891849092611931565b613149565b610fe2565b613189565b50915050565b906131df611a3a565b505f5260205260405f2090565b906131f5611a3a565b50815481101561320a57600101602002015490565b638277484f5f526020526024601cfd5b90815481101561322e576001016020020155565b638277484f5f526020526024601cfdfea264697066735822122023dbf9d43de109572666fcc5ebf974d0bb80fe85ae94e44e2addfab56c37611364736f6c634300081e0033","linkReferences":{}},"methodIdentifiers":{"getOwnerExpiration(address,address)":"3b3c51a3","getOwners(address)":"fd8b84b1","getOwnersCount(address)":"940d9ec6","isInitialized(address)":"d60b347f","isModuleType(uint256)":"ecd05961","isOwner(address,address)":"7ddc02d4","isValidSignatureWithSender(address,bytes32,bytes)":"f551e2ee","name()":"06fdde03","onInstall(bytes)":"6d61fe70","onUninstall(bytes)":"8a91b0e3","thresholds(address)":"9df5f6bd","updateConfig(uint256,(address,uint48)[],address[])":"b8474ec8","updateOwnerExpiration(address,uint48)":"eccf1ae8","validateSignatureWithData(bytes32,bytes,bytes)":"940d3840","validateUserOp((address,uint256,bytes,bytes,bytes32,uint256,bytes32,bytes,bytes),bytes32)":"97003203","version()":"54fd4d50"},"id":53}