{"abi":[{"type":"function","name":"mockFill","inputs":[{"name":"mockFills","type":"tuple[]","internalType":"struct MockRouter.MockFillCall[]","components":[{"name":"target","type":"address","internalType":"address"},{"name":"callData","type":"bytes","internalType":"bytes"}]}],"outputs":[],"stateMutability":"nonpayable"}],"bytecode":{"object":"0x608060405234601c57600e6020565b6103d661002b82396103d690f35b6026565b60405190565b5f80fdfe60806040526004361015610013575b6100fe565b61001d5f3561002c565b638b10923e0361000e576100ca565b60e01c90565b60405190565b5f80fd5b5f80fd5b5f80fd5b5f80fd5b5f80fd5b5f80fd5b909182601f8301121561008a5781359167ffffffffffffffff831161008557602001926020830284011161008057565b61004c565b610048565b610044565b906020828203126100c0575f82013567ffffffffffffffff81116100bb576100b79201610050565b9091565b610040565b61003c565b5f0190565b346100f9576100e36100dd36600461008f565b906102fe565b6100eb610032565b806100f5816100c5565b0390f35b610038565b5f80fd5b5f90565b90565b60016101159101610106565b90565b5090565b634e487b7160e01b5f52603260045260245ffd5b5f80fd5b5f80fd5b5f80fd5b903590600160400381360303821215610153570190565b610130565b9082101561017257602061016f920281019061013c565b90565b61011c565b60018060a01b031690565b61018b90610177565b90565b61019781610182565b0361019e57565b5f80fd5b356101ac8161018e565b90565b9035906001602003813603038212156101f1570180359067ffffffffffffffff82116101ec576020019160018202360383136101e757565b610138565b610134565b610130565b905090565b90825f939282370152565b9091826102168161021d936101f6565b80936101fb565b0190565b909161022c92610206565b90565b601f801991011690565b634e487b7160e01b5f52604160045260245ffd5b906102579061022f565b810190811067ffffffffffffffff82111761027157604052565b610239565b90610289610282610032565b928361024d565b565b67ffffffffffffffff81116102a9576102a560209161022f565b0190565b610239565b906102c06102bb8361028b565b610276565b918252565b606090565b3d5f146102e5576102da3d6102ae565b903d5f602084013e5b565b6102ed6102c5565b906102e3565b156102fa57565b5f80fd5b9190610308610102565b5b8061032661032061031b878690610118565b610106565b91610106565b101561039a57610395906103905f808061034c816103468b8a8991610158565b016101a2565b61036561035b8b8a8991610158565b60208101906101af565b929092919261037e610375610032565b93849283610221565b03925af161038a6102ca565b506102f3565b610109565b610309565b5050905056fea2646970667358221220865d6ed9e38fb67910f6a01f3d0b597c0c1b11fa93efd944145c8978642978c664736f6c634300081e0033","linkReferences":{}},"methodIdentifiers":{"mockFill((address,bytes)[])":"8b10923e"},"id":0}