{"abi":[{"type":"constructor","inputs":[{"name":"token","type":"address","internalType":"address"}],"stateMutability":"nonpayable"},{"type":"function","name":"approve","inputs":[{"name":"account","type":"address","internalType":"address"},{"name":"id","type":"uint256","internalType":"uint256"}],"outputs":[],"stateMutability":"payable"},{"type":"function","name":"available","inputs":[{"name":"label","type":"string","internalType":"string"}],"outputs":[{"name":"","type":"bool","internalType":"bool"}],"stateMutability":"nonpayable"},{"type":"function","name":"balanceOf","inputs":[{"name":"owner","type":"address","internalType":"address"}],"outputs":[{"name":"result","type":"uint256","internalType":"uint256"}],"stateMutability":"view"},{"type":"function","name":"commit","inputs":[{"name":"commitment","type":"bytes32","internalType":"bytes32"}],"outputs":[],"stateMutability":"nonpayable"},{"type":"function","name":"commitments","inputs":[{"name":"","type":"bytes32","internalType":"bytes32"}],"outputs":[{"name":"","type":"uint256","internalType":"uint256"}],"stateMutability":"view"},{"type":"function","name":"getApproved","inputs":[{"name":"id","type":"uint256","internalType":"uint256"}],"outputs":[{"name":"result","type":"address","internalType":"address"}],"stateMutability":"view"},{"type":"function","name":"isApprovedForAll","inputs":[{"name":"owner","type":"address","internalType":"address"},{"name":"operator","type":"address","internalType":"address"}],"outputs":[{"name":"result","type":"bool","internalType":"bool"}],"stateMutability":"view"},{"type":"function","name":"makeCommitment","inputs":[{"name":"registration","type":"tuple","internalType":"struct IETHRegistrarController.Registration","components":[{"name":"label","type":"string","internalType":"string"},{"name":"owner","type":"address","internalType":"address"},{"name":"duration","type":"uint256","internalType":"uint256"},{"name":"secret","type":"bytes32","internalType":"bytes32"},{"name":"resolver","type":"address","internalType":"address"},{"name":"data","type":"bytes[]","internalType":"bytes[]"},{"name":"reverseRecord","type":"uint8","internalType":"uint8"},{"name":"referrer","type":"bytes32","internalType":"bytes32"}]}],"outputs":[{"name":"commitment","type":"bytes32","internalType":"bytes32"}],"stateMutability":"pure"},{"type":"function","name":"name","inputs":[],"outputs":[{"name":"","type":"string","internalType":"string"}],"stateMutability":"view"},{"type":"function","name":"ownerOf","inputs":[{"name":"id","type":"uint256","internalType":"uint256"}],"outputs":[{"name":"result","type":"address","internalType":"address"}],"stateMutability":"view"},{"type":"function","name":"register","inputs":[{"name":"registration","type":"tuple","internalType":"struct IETHRegistrarController.Registration","components":[{"name":"label","type":"string","internalType":"string"},{"name":"owner","type":"address","internalType":"address"},{"name":"duration","type":"uint256","internalType":"uint256"},{"name":"secret","type":"bytes32","internalType":"bytes32"},{"name":"resolver","type":"address","internalType":"address"},{"name":"data","type":"bytes[]","internalType":"bytes[]"},{"name":"reverseRecord","type":"uint8","internalType":"uint8"},{"name":"referrer","type":"bytes32","internalType":"bytes32"}]}],"outputs":[],"stateMutability":"payable"},{"type":"function","name":"registerWithERC20","inputs":[{"name":"registration","type":"tuple","internalType":"struct IETHRegistrarController.Registration","components":[{"name":"label","type":"string","internalType":"string"},{"name":"owner","type":"address","internalType":"address"},{"name":"duration","type":"uint256","internalType":"uint256"},{"name":"secret","type":"bytes32","internalType":"bytes32"},{"name":"resolver","type":"address","internalType":"address"},{"name":"data","type":"bytes[]","internalType":"bytes[]"},{"name":"reverseRecord","type":"uint8","internalType":"uint8"},{"name":"referrer","type":"bytes32","internalType":"bytes32"}]}],"outputs":[],"stateMutability":"nonpayable"},{"type":"function","name":"renew","inputs":[{"name":"label","type":"string","internalType":"string"},{"name":"duration","type":"uint256","internalType":"uint256"},{"name":"referrer","type":"bytes32","internalType":"bytes32"}],"outputs":[],"stateMutability":"payable"},{"type":"function","name":"safeTransferFrom","inputs":[{"name":"from","type":"address","internalType":"address"},{"name":"to","type":"address","internalType":"address"},{"name":"id","type":"uint256","internalType":"uint256"}],"outputs":[],"stateMutability":"payable"},{"type":"function","name":"safeTransferFrom","inputs":[{"name":"from","type":"address","internalType":"address"},{"name":"to","type":"address","internalType":"address"},{"name":"id","type":"uint256","internalType":"uint256"},{"name":"data","type":"bytes","internalType":"bytes"}],"outputs":[],"stateMutability":"payable"},{"type":"function","name":"setApprovalForAll","inputs":[{"name":"operator","type":"address","internalType":"address"},{"name":"isApproved","type":"bool","internalType":"bool"}],"outputs":[],"stateMutability":"nonpayable"},{"type":"function","name":"supportsInterface","inputs":[{"name":"interfaceId","type":"bytes4","internalType":"bytes4"}],"outputs":[{"name":"result","type":"bool","internalType":"bool"}],"stateMutability":"view"},{"type":"function","name":"symbol","inputs":[],"outputs":[{"name":"","type":"string","internalType":"string"}],"stateMutability":"view"},{"type":"function","name":"tokenURI","inputs":[{"name":"id","type":"uint256","internalType":"uint256"}],"outputs":[{"name":"","type":"string","internalType":"string"}],"stateMutability":"view"},{"type":"function","name":"transferFrom","inputs":[{"name":"from","type":"address","internalType":"address"},{"name":"to","type":"address","internalType":"address"},{"name":"id","type":"uint256","internalType":"uint256"}],"outputs":[],"stateMutability":"payable"},{"type":"event","name":"Approval","inputs":[{"name":"owner","type":"address","indexed":true,"internalType":"address"},{"name":"account","type":"address","indexed":true,"internalType":"address"},{"name":"id","type":"uint256","indexed":true,"internalType":"uint256"}],"anonymous":false},{"type":"event","name":"ApprovalForAll","inputs":[{"name":"owner","type":"address","indexed":true,"internalType":"address"},{"name":"operator","type":"address","indexed":true,"internalType":"address"},{"name":"isApproved","type":"bool","indexed":false,"internalType":"bool"}],"anonymous":false},{"type":"event","name":"Transfer","inputs":[{"name":"from","type":"address","indexed":true,"internalType":"address"},{"name":"to","type":"address","indexed":true,"internalType":"address"},{"name":"id","type":"uint256","indexed":true,"internalType":"uint256"}],"anonymous":false},{"type":"error","name":"AccountBalanceOverflow","inputs":[]},{"type":"error","name":"BalanceQueryForZeroAddress","inputs":[]},{"type":"error","name":"NotOwnerNorApproved","inputs":[]},{"type":"error","name":"TokenAlreadyExists","inputs":[]},{"type":"error","name":"TokenDoesNotExist","inputs":[]},{"type":"error","name":"TransferFromIncorrectOwner","inputs":[]},{"type":"error","name":"TransferToNonERC721ReceiverImplementer","inputs":[]},{"type":"error","name":"TransferToZeroAddress","inputs":[]}],"bytecode":{"object":"0x60a060405234610038576100196100146100fd565b61011e565b61002161003d565b611f766101248239608051816114bd0152611f7690f35b610043565b60405190565b5f80fd5b601f801991011690565b634e487b7160e01b5f52604160045260245ffd5b9061006f90610047565b810190811060018060401b0382111761008757604052565b610051565b9061009f61009861003d565b9283610065565b565b5f80fd5b60018060a01b031690565b6100b9906100a5565b90565b6100c5816100b0565b036100cc57565b5f80fd5b905051906100dd826100bc565b565b906020828203126100f8576100f5915f016100d0565b90565b6100a1565b61011b61209a803803806101108161008c565b9283398101906100df565b90565b60805256fe60806040526004361015610013575b610b72565b61001d5f3561015c565b806301ffc9a71461015757806306fdde0314610152578063081812fc1461014d578063095ea7b31461014857806318026ad11461014357806323b872dd1461013e57806342842e0e146101395780636352211e1461013457806370a082311461012f578063839df9451461012a5780638b0f07bb1461012557806395d89b4114610120578063a22cb4651461011b578063aeb8ce9b14610116578063b88d4fde14610111578063c87b56dd1461010c578063cf7d6e0114610107578063e985e9c514610102578063ef9c8805146100fd5763f14fcbc80361000e57610b3f565b610b16565b610ae0565b610a7e565b610a27565b6109fa565b610926565b6107e0565b61075b565b610728565b6106a6565b6105ec565b610577565b61054d565b610523565b6104c4565b6103d3565b610349565b610297565b6101e8565b60e01c90565b60405190565b5f80fd5b5f80fd5b5f80fd5b63ffffffff60e01b1690565b61018981610174565b0361019057565b5f80fd5b905035906101a182610180565b565b906020828203126101bc576101b9915f01610194565b90565b61016c565b151590565b6101cf906101c1565b9052565b91906101e6905f602085019401906101c6565b565b34610218576102146102036101fe3660046101a3565b610b7a565b61020b610162565b918291826101d3565b0390f35b610168565b5f91031261022757565b61016c565b5190565b60209181520190565b90825f9392825e0152565b601f801991011690565b61026d61027660209361027b936102648161022c565b93848093610230565b95869101610239565b610244565b0190565b6102949160208201915f81840391015261024e565b90565b346102c7576102a736600461021d565b6102c36102b2610ba6565b6102ba610162565b9182918261027f565b0390f35b610168565b90565b6102d8816102cc565b036102df57565b5f80fd5b905035906102f0826102cf565b565b9060208282031261030b57610308915f016102e3565b90565b61016c565b60018060a01b031690565b61032490610310565b90565b6103309061031b565b9052565b9190610347905f60208501940190610327565b565b346103795761037561036461035f3660046102f2565b610bb5565b61036c610162565b91829182610334565b0390f35b610168565b6103878161031b565b0361038e57565b5f80fd5b9050359061039f8261037e565b565b91906040838203126103c957806103bd6103c6925f8601610392565b936020016102e3565b90565b61016c565b5f0190565b6103e76103e13660046103a1565b90610bf5565b6103ef610162565b806103f9816103ce565b0390f35b5f80fd5b5f80fd5b5f80fd5b909182601f830112156104435781359167ffffffffffffffff831161043e57602001926001830284011161043957565b610405565b610401565b6103fd565b90565b61045481610448565b0361045b57565b5f80fd5b9050359061046c8261044b565b565b9190916060818403126104bf575f8101359167ffffffffffffffff83116104ba5761049e846104b7948401610409565b9390946104ae81602086016102e3565b9360400161045f565b90565b610170565b61016c565b6104cf36600461046e565b505050506104db610162565b806104e5816103ce565b0390f35b909160608284031261051e5761051b610504845f8501610392565b936105128160208601610392565b936040016102e3565b90565b61016c565b6105376105313660046104e9565b91610c04565b61053f610162565b80610549816103ce565b0390f35b61056161055b3660046104e9565b91610d27565b610569610162565b80610573816103ce565b0390f35b346105a7576105a361059261058d3660046102f2565b610d62565b61059a610162565b91829182610334565b0390f35b610168565b906020828203126105c5576105c2915f01610392565b90565b61016c565b6105d3906102cc565b9052565b91906105ea905f602085019401906105ca565b565b3461061c576106186106076106023660046105ac565b610d8e565b61060f610162565b918291826105d7565b0390f35b610168565b9060208282031261063a57610637915f0161045f565b90565b61016c565b61064890610448565b90565b906106559061063f565b5f5260205260405f2090565b1c90565b90565b61067890600861067d9302610661565b610665565b90565b9061068b9154610668565b90565b6106a39061069e5f915f9261064b565b610680565b90565b346106d6576106d26106c16106bc366004610621565b61068e565b6106c9610162565b918291826105d7565b0390f35b610168565b5f80fd5b90816101009103126106ee5790565b6106db565b90602082820312610723575f82013567ffffffffffffffff811161071e5761071b92016106df565b90565b610170565b61016c565b346107565761074061073b3660046106f3565b6113d5565b610748610162565b80610752816103ce565b0390f35b610168565b3461078b5761076b36600461021d565b610787610776611537565b61077e610162565b9182918261027f565b0390f35b610168565b610799816101c1565b036107a057565b5f80fd5b905035906107b182610790565b565b91906040838203126107db57806107cf6107d8925f8601610392565b936020016107a4565b90565b61016c565b3461080f576107f96107f33660046107b3565b90611542565b610801610162565b8061080b816103ce565b0390f35b610168565b5f80fd5b634e487b7160e01b5f52604160045260245ffd5b9061083690610244565b810190811067ffffffffffffffff82111761085057604052565b610818565b90610868610861610162565b928361082c565b565b67ffffffffffffffff811161088857610884602091610244565b0190565b610818565b90825f939282370152565b909291926108ad6108a88261086a565b610855565b938185526020850190828401116108c9576108c79261088d565b565b610814565b9080601f830112156108ec578160206108e993359101610898565b90565b6103fd565b90602082820312610921575f82013567ffffffffffffffff811161091c5761091992016108ce565b90565b610170565b61016c565b346109565761095261094161093c3660046108f1565b61158f565b610949610162565b918291826101d3565b0390f35b610168565b909182601f830112156109955781359167ffffffffffffffff831161099057602001926001830284011161098b57565b610405565b610401565b6103fd565b906080828203126109f5576109b1815f8401610392565b926109bf8260208501610392565b926109cd83604083016102e3565b92606082013567ffffffffffffffff81116109f0576109ec920161095b565b9091565b610170565b61016c565b610a11610a0836600461099a565b9392909261159b565b610a19610162565b80610a23816103ce565b0390f35b34610a5757610a53610a42610a3d3660046102f2565b6116b0565b610a4a610162565b9182918261027f565b0390f35b610168565b610a6590610448565b9052565b9190610a7c905f60208501940190610a5c565b565b34610aae57610aaa610a99610a943660046106f3565b611a28565b610aa1610162565b91829182610a69565b0390f35b610168565b9190604083820312610adb5780610acf610ad8925f8601610392565b93602001610392565b90565b61016c565b34610b1157610b0d610afc610af6366004610ab3565b90611a71565b610b04610162565b918291826101d3565b0390f35b610168565b610b29610b243660046106f3565b611b17565b610b31610162565b80610b3b816103ce565b0390f35b34610b6d57610b57610b52366004610621565b611ca6565b610b5f610162565b80610b69816103ce565b0390f35b610168565b5f80fd5b5f90565b610b82610b76565b5060e01c635b5e139f8114906301ffc9a76380ac58cd82149114171790565b606090565b610bae610ba1565b90565b5f90565b610bbd610bb1565b50805f52673ec412a9852d173d60c11b601c5260205f20810101805460601b15610be8576001015490565b63ceea21b65f526004601cfd5b610c029133919091611cea565b565b905f1960601c91821690821691835f5233673ec412a9852d173d60c11b17601c5260205f2084018401908154809116838114810215610ce45750825f5281600101548033148433141715610ccd575b610cc2575b838318189055601c600c2060018154039055815f52601c600c2060018154019063ffffffff8216840215610cad57557fddf252ad1be2c89b69c2b068fc378daa952ba7f163c4a11628f55a4df523b3ef5f38a4565b67ea553b3401336cea841560021b526004601cfd5b5f8260010155610c58565b6030600c2054610c5357634b6e7f185f526004601cfd5b67ceea21b6a1148100901560021b526004601cfd5b90610d0b610d068361086a565b610855565b918252565b610d195f610cf9565b90565b610d24610d10565b90565b91610d3483838391610c04565b610d3d82611d86565b610d47575b505050565b610d5a9291610d54610d1c565b92611d93565b5f8080610d42565b610d7490610d6e610bb1565b50611e21565b908115610d7d57565b63ceea21b65f526004601cfd5b5f90565b610d96610d8a565b508015610dbd57673ec412a9852d173d60c11b601c525f5263ffffffff601c600c20541690565b638f4eb6045f526004601cfd5b5f80fd5b5f80fd5b5f80fd5b903590600160200381360303821215610e18570180359067ffffffffffffffff8211610e1357602001916001820236038313610e0e57565b610dd2565b610dce565b610dca565b91565b67ffffffffffffffff8111610e3e57610e3a602091610244565b0190565b610818565b90929192610e58610e5382610e20565b610855565b93818552602085019082840111610e7457610e729261088d565b565b610814565b610e84913691610e43565b90565b60200190565b5190565b5f1c90565b610ea2610ea791610e91565b610665565b90565b610eb49054610e96565b90565b90565b90565b610ed1610ecc610ed692610eb7565b610eba565b6102cc565b90565b5f7f436f6d6d69746d656e74206e6f7420666f756e64000000000000000000000000910152565b610f0d6014602092610230565b610f1681610ed9565b0190565b610f2f9060208101905f818303910152610f00565b90565b15610f3957565b610f41610162565b62461bcd60e51b815280610f5760048201610f1a565b0390fd5b90565b610f72610f6d610f7792610f5b565b610eba565b6102cc565b90565b610f84603c610f5e565b90565b634e487b7160e01b5f52601160045260245ffd5b610faa610fb0919392936102cc565b926102cc565b8201809211610fbb57565b610f87565b5f7f436f6d6d69746d656e7420746f6f206e65770000000000000000000000000000910152565b610ff46012602092610230565b610ffd81610fc0565b0190565b6110169060208101905f818303910152610fe7565b90565b1561102057565b611028610162565b62461bcd60e51b81528061103e60048201611001565b0390fd5b90565b61105961105461105e92611042565b610eba565b6102cc565b90565b61106d62015180611045565b90565b5f7f436f6d6d69746d656e7420746f6f206f6c640000000000000000000000000000910152565b6110a46012602092610230565b6110ad81611070565b0190565b6110c69060208101905f818303910152611097565b90565b156110d057565b6110d8610162565b62461bcd60e51b8152806110ee600482016110b1565b0390fd5b1b90565b9190600861111191029161110b5f19846110f2565b926110f2565b9181191691161790565b61112f61112a611134926102cc565b610eba565b6102cc565b90565b90565b919061115061114b6111589361111b565b611137565b9083546110f6565b9055565b61116e91611168610d8a565b9161113a565b565b61118461117f61118992610310565b610eba565b610310565b90565b61119590611170565b90565b6111a19061118c565b90565b90565b6111bb6111b66111c0926111a4565b610eba565b6102cc565b90565b6111cd60646111a7565b90565b356111da8161037e565b90565b6111e96111ee91610e91565b61111b565b90565b906111fb9061111b565b5f5260205260405f2090565b5090565b634e487b7160e01b5f52602260045260245ffd5b906001600283049216801561123f575b602083101461123a57565b61120b565b91607f169161122f565b5f5260205f2090565b601f602091010490565b5b818110611268575050565b806112755f60019361115c565b0161125d565b9190601f811161128b575b505050565b6112976112bc93611249565b9060206112a384611252565b830193106112c4575b6112b590611252565b019061125c565b5f8080611286565b91506112b5819290506112ac565b906112e2905f1990600802610661565b191690565b816112f1916112d2565b906002021790565b916113049082611207565b9067ffffffffffffffff82116113c35761132882611322855461121f565b8561127b565b5f90601f831160011461135b5791809161134a935f9261134f575b50506112e7565b90555b565b90915001355f80611343565b601f1983169161136a85611249565b925f5b8181106113ab57509160029391856001969410611391575b5050500201905561134d565b6113a1910135601f8416906112d2565b90555f8080611385565b9193602060018192878701358155019501920161136d565b610818565b906113d392916112f9565b565b6115306115359161151c6113fe6113f86113f2845f810190610dd6565b90610e1d565b90610e79565b61141061140a82610e8d565b91610e87565b20916114b85f6114b361142284611a28565b6114ad61143861143385849061064b565b610eaa565b6114548161144e61144888610ebd565b916102cc565b11610f32565b6114824261147b6114756114708561146a610f7a565b90610f9b565b6102cc565b916102cc565b1015611019565b6114a66114a061149b4293611495611061565b90610f9b565b6102cc565b916102cc565b11156110c9565b8261064b565b61115c565b6114f57f0000000000000000000000000000000000000000000000000000000000000000336114e630611198565b906114ef6111c3565b92611e4d565b611513611504602083016111d0565b61150d856111dd565b90611eac565b5f810190610dd6565b92909161152a6001916111dd565b906111f1565b6113c8565b565b61153f610ba1565b90565b90151581601c52670a5a2e7a00000000600852335f52806030600c20555f5260601b60601c337f17307eab39ab6107e8899845ad3d59bd9653f200f220920489ca2b5937696c3160205fa3565b50611598610b76565b90565b929190926115ab81858491610c04565b6115b484611d86565b6115c0575b5050505050565b6115d6946115d091949293610e79565b92611d93565b5f808080806115b9565b60209181520190565b905f92918054906116036115fc8361121f565b80946115e0565b916001811690815f1461165a575060011461161e575b505050565b61162b9192939450611249565b915f925b81841061164257505001905f8080611619565b6001816020929593955484860152019101929061162f565b92949550505060ff19168252151560200201905f8080611619565b9061167f916115e9565b90565b906116a261169b92611692610162565b93848092611675565b038361082c565b565b6116ad90611682565b90565b6116c76116cc916116bf610ba1565b5060016111f1565b6116a4565b90565b5f90565b5f80fd5b5f80fd5b5f80fd5b903560016020038236030381121561172057016020813591019167ffffffffffffffff821161171b57600182023603831361171657565b6116d7565b6116d3565b6116db565b919061173f8161173881611744956115e0565b809561088d565b610244565b0190565b50611757906020810190610392565b90565b6117639061031b565b9052565b506117769060208101906102e3565b90565b611782906102cc565b9052565b5061179590602081019061045f565b90565b6117a190610448565b9052565b90356001602003823603038112156117e657016020813591019167ffffffffffffffff82116117e15760208202360383136117dc57565b6116d7565b6116d3565b6116db565b60209181520190565b90565b60209181520190565b919061181a816118138161181f956117f7565b809561088d565b610244565b0190565b9061182e9291611800565b90565b903560016020038236030381121561187257016020813591019167ffffffffffffffff821161186d57600182023603831361186857565b6116d7565b6116d3565b6116db565b60200190565b9181611888916117eb565b9081611899602083028401946117f4565b92835f925b8484106118ae5750505050505090565b90919293949560206118da6118d483856001950388526118ce8b88611831565b90611823565b98611877565b94019401929493919061189e565b60ff1690565b6118f7816118e8565b036118fe57565b5f80fd5b9050359061190f826118ee565b565b50611920906020810190611902565b90565b61192c906118e8565b9052565b90611a0d9060e0611a056119e161195e61010085016119515f8901896116df565b908783035f890152611725565b61197861196e6020890189611748565b602087019061175a565b6119926119886040890189611767565b6040870190611779565b6119ac6119a26060890189611786565b6060870190611798565b6119c66119bc6080890189611748565b608087019061175a565b6119d360a08801886117a5565b9086830360a088015261187d565b946119fc6119f260c0830183611911565b60c0860190611923565b82810190611786565b910190611798565b90565b611a259160208201915f818403910152611930565b90565b611a5b611a4c91611a376116cf565b50611a40610162565b92839160208301611a10565b6020820181038252038261082c565b611a6d611a6782610e8d565b91610e87565b2090565b90611a7a610b76565b50601c52670a5a2e7a000000006008525f526030600c205490565b5f7f496e73756666696369656e74207061796d656e74000000000000000000000000910152565b611ac96014602092610230565b611ad281611a95565b0190565b611aeb9060208101905f818303910152611abc565b90565b15611af557565b611afd610162565b62461bcd60e51b815280611b1360048201611ad6565b0390fd5b611c59611c5e91611b4234611b3b611b35611b306111c3565b6102cc565b916102cc565b1015611aee565b611c45611b64611b5e611b58845f810190610dd6565b90610e1d565b90610e79565b611b76611b7082610e8d565b91610e87565b2091611c1e5f611c19611b8884611a28565b611c13611b9e611b9985849061064b565b610eaa565b611bba81611bb4611bae88610ebd565b916102cc565b11610f32565b611be842611be1611bdb611bd685611bd0610f7a565b90610f9b565b6102cc565b916102cc565b1015611019565b611c0c611c06611c014293611bfb611061565b90610f9b565b6102cc565b916102cc565b11156110c9565b8261064b565b61115c565b611c3c611c2d602083016111d0565b611c36856111dd565b90611eac565b5f810190610dd6565b929091611c536001916111dd565b906111f1565b6113c8565b565b15611c6757565b5f80fd5b5f1b90565b90611c7c5f1991611c6b565b9181191691161790565b90611c9b611c96611ca29261111b565b611137565b8254611c70565b9055565b611ce890611cd8611cc0611cbb5f849061064b565b610eaa565b611cd2611ccc5f610ebd565b916102cc565b14611c60565b611ce342915f61064b565b611c86565b565b905f1960601c908116918116835f5280673ec412a9852d173d60c11b17601c5260205f208401840191825416918215611d7957818385931490151715611d55575b600101557f8c5be1e5ebec7d5bd14f71427d1e84f3dd0314c0f7b2291e5b200ac8c7c3b9255f38a4565b9050815f526030600c205415611d6c578290611d2b565b634b6e7f185f526004601cfd5b63ceea21b65f526004601cfd5b611d8e610b76565b503b90565b9160209160a460405195869363150b7a0296878652338787015260601b60601c6040860152606085015260808085015280518091818060a0880152611e0d575b505001905f601c8401915af115611dfe575b60e01b905103611df157565b63d1a57ed65f526004601cfd5b3d15611de557503d5f823e3d90fd5b818760c08801920160045afa50805f611dd3565b611e29610bb1565b50805f52673ec412a9852d173d60c11b601c5260205f208101015460601b60601c90565b916040519360605260405260601b602c526323b872dd60601b600c5260205f6064601c82855af1908160015f51141615611e8d575b50505f606052604052565b3d903b15171015611e9f575f80611e82565b637939f4245f526004601cfd5b60601b60601c815f52673ec412a9852d173d60c11b601c5260205f208201820180548060601b611f335782179055805f52601c600c2060018154019063ffffffff8216830215611f1e57555f7fddf252ad1be2c89b69c2b068fc378daa952ba7f163c4a11628f55a4df523b3ef8138a4565b67ea553b3401336cea831560021b526004601cfd5b63c991cbb15f526004601cfdfea2646970667358221220f9af22c08ce8040635b13cc24dc8f5f0e03873a61afdbfd6b6bb487d2ec2d41464736f6c634300081e0033","linkReferences":{}},"methodIdentifiers":{"approve(address,uint256)":"095ea7b3","available(string)":"aeb8ce9b","balanceOf(address)":"70a08231","commit(bytes32)":"f14fcbc8","commitments(bytes32)":"839df945","getApproved(uint256)":"081812fc","isApprovedForAll(address,address)":"e985e9c5","makeCommitment((string,address,uint256,bytes32,address,bytes[],uint8,bytes32))":"cf7d6e01","name()":"06fdde03","ownerOf(uint256)":"6352211e","register((string,address,uint256,bytes32,address,bytes[],uint8,bytes32))":"ef9c8805","registerWithERC20((string,address,uint256,bytes32,address,bytes[],uint8,bytes32))":"8b0f07bb","renew(string,uint256,bytes32)":"18026ad1","safeTransferFrom(address,address,uint256)":"42842e0e","safeTransferFrom(address,address,uint256,bytes)":"b88d4fde","setApprovalForAll(address,bool)":"a22cb465","supportsInterface(bytes4)":"01ffc9a7","symbol()":"95d89b41","tokenURI(uint256)":"c87b56dd","transferFrom(address,address,uint256)":"23b872dd"},"id":378}